{
  "contractName": "SeedHub",
  "abi": [
    {
      "anonymous": false,
      "inputs": [
        {
          "indexed": true,
          "internalType": "address",
          "name": "previousOwner",
          "type": "address"
        },
        {
          "indexed": true,
          "internalType": "address",
          "name": "newOwner",
          "type": "address"
        }
      ],
      "name": "OwnershipTransferred",
      "type": "event"
    },
    {
      "inputs": [],
      "name": "owner",
      "outputs": [
        {
          "internalType": "address",
          "name": "",
          "type": "address"
        }
      ],
      "stateMutability": "view",
      "type": "function"
    },
    {
      "inputs": [],
      "name": "renounceOwnership",
      "outputs": [],
      "stateMutability": "nonpayable",
      "type": "function"
    },
    {
      "inputs": [
        {
          "internalType": "uint256",
          "name": "",
          "type": "uint256"
        }
      ],
      "name": "seedLots",
      "outputs": [
        {
          "internalType": "uint256",
          "name": "shelfLife",
          "type": "uint256"
        },
        {
          "internalType": "uint256",
          "name": "lotGrams",
          "type": "uint256"
        },
        {
          "internalType": "uint256",
          "name": "expiryDate",
          "type": "uint256"
        },
        {
          "internalType": "string",
          "name": "seedClass",
          "type": "string"
        },
        {
          "internalType": "string",
          "name": "variety",
          "type": "string"
        },
        {
          "internalType": "address",
          "name": "owner",
          "type": "address"
        }
      ],
      "stateMutability": "view",
      "type": "function"
    },
    {
      "inputs": [
        {
          "internalType": "address",
          "name": "newOwner",
          "type": "address"
        }
      ],
      "name": "transferOwnership",
      "outputs": [],
      "stateMutability": "nonpayable",
      "type": "function"
    },
    {
      "inputs": [
        {
          "internalType": "address",
          "name": "",
          "type": "address"
        }
      ],
      "name": "userBase",
      "outputs": [
        {
          "internalType": "address",
          "name": "user",
          "type": "address"
        },
        {
          "internalType": "uint256",
          "name": "tokenBalance",
          "type": "uint256"
        }
      ],
      "stateMutability": "view",
      "type": "function"
    },
    {
      "inputs": [
        {
          "internalType": "address",
          "name": "",
          "type": "address"
        },
        {
          "internalType": "uint256",
          "name": "",
          "type": "uint256"
        }
      ],
      "name": "userSeedLots",
      "outputs": [
        {
          "internalType": "uint256",
          "name": "shelfLife",
          "type": "uint256"
        },
        {
          "internalType": "uint256",
          "name": "lotGrams",
          "type": "uint256"
        },
        {
          "internalType": "uint256",
          "name": "expiryDate",
          "type": "uint256"
        },
        {
          "internalType": "string",
          "name": "seedClass",
          "type": "string"
        },
        {
          "internalType": "string",
          "name": "variety",
          "type": "string"
        },
        {
          "internalType": "address",
          "name": "owner",
          "type": "address"
        }
      ],
      "stateMutability": "view",
      "type": "function"
    },
    {
      "inputs": [
        {
          "internalType": "uint256",
          "name": "",
          "type": "uint256"
        }
      ],
      "name": "usersInfo",
      "outputs": [
        {
          "internalType": "address",
          "name": "user",
          "type": "address"
        },
        {
          "internalType": "uint256",
          "name": "tokenBalance",
          "type": "uint256"
        }
      ],
      "stateMutability": "view",
      "type": "function"
    },
    {
      "inputs": [
        {
          "internalType": "address",
          "name": "",
          "type": "address"
        }
      ],
      "name": "verifiedUsers",
      "outputs": [
        {
          "internalType": "bool",
          "name": "",
          "type": "bool"
        }
      ],
      "stateMutability": "view",
      "type": "function"
    },
    {
      "inputs": [
        {
          "internalType": "address",
          "name": "_user",
          "type": "address"
        },
        {
          "internalType": "uint256",
          "name": "_tokenBalance",
          "type": "uint256"
        }
      ],
      "name": "addUser",
      "outputs": [
        {
          "internalType": "bool",
          "name": "",
          "type": "bool"
        }
      ],
      "stateMutability": "nonpayable",
      "type": "function"
    },
    {
      "inputs": [],
      "name": "fetchUserBase",
      "outputs": [
        {
          "components": [
            {
              "internalType": "address",
              "name": "user",
              "type": "address"
            },
            {
              "internalType": "uint256",
              "name": "tokenBalance",
              "type": "uint256"
            }
          ],
          "internalType": "struct SeedHub.UserInfo[]",
          "name": "",
          "type": "tuple[]"
        }
      ],
      "stateMutability": "view",
      "type": "function"
    },
    {
      "inputs": [
        {
          "internalType": "uint256",
          "name": "_shelfLife",
          "type": "uint256"
        },
        {
          "internalType": "uint256",
          "name": "_lotGrams",
          "type": "uint256"
        },
        {
          "internalType": "uint256",
          "name": "_expiryDate",
          "type": "uint256"
        },
        {
          "internalType": "string",
          "name": "_seedClass",
          "type": "string"
        },
        {
          "internalType": "string",
          "name": "_variety",
          "type": "string"
        }
      ],
      "name": "addSeed",
      "outputs": [],
      "stateMutability": "nonpayable",
      "type": "function"
    },
    {
      "inputs": [],
      "name": "fetchSeedLots",
      "outputs": [
        {
          "components": [
            {
              "internalType": "uint256",
              "name": "shelfLife",
              "type": "uint256"
            },
            {
              "internalType": "uint256",
              "name": "lotGrams",
              "type": "uint256"
            },
            {
              "internalType": "uint256",
              "name": "expiryDate",
              "type": "uint256"
            },
            {
              "internalType": "string",
              "name": "seedClass",
              "type": "string"
            },
            {
              "internalType": "string",
              "name": "variety",
              "type": "string"
            },
            {
              "internalType": "address",
              "name": "owner",
              "type": "address"
            }
          ],
          "internalType": "struct SeedHub.SeedLot[]",
          "name": "",
          "type": "tuple[]"
        }
      ],
      "stateMutability": "view",
      "type": "function"
    }
  ],
  "bytecode": "0x608060405234801561001057600080fd5b5061002d61002261003260201b60201c565b61003a60201b60201c565b6100fe565b600033905090565b60008060009054906101000a900473ffffffffffffffffffffffffffffffffffffffff169050816000806101000a81548173ffffffffffffffffffffffffffffffffffffffff021916908373ffffffffffffffffffffffffffffffffffffffff1602179055508173ffffffffffffffffffffffffffffffffffffffff168173ffffffffffffffffffffffffffffffffffffffff167f8be0079c531659141344cd1fd0a4f28419497f9722a3daafe3b4186f6b6457e060405160405180910390a35050565b6119478061010d6000396000f3fe608060405234801561001057600080fd5b50600436106100b45760003560e01c80638c6c129c116100715780638c6c129c146101855780638da5cb5b146101b6578063be4ca4cf146101d4578063d301719314610205578063e35fe36614610235578063f2fde38b14610265576100b4565b80631b24e09a146100b95780632a2b928c146100ee57806337ef1f141461010c5780635799944b14610141578063715018a61461015d5780637584631414610167575b600080fd5b6100d360048036038101906100ce91906110b4565b610281565b6040516100e5969594939291906111ab565b60405180910390f35b6100f661040a565b6040516101039190611316565b60405180910390f35b61012660048036038101906101219190611338565b6104c9565b604051610138969594939291906111ab565b60405180910390f35b61015b6004803603810190610156919061149a565b610645565b005b61016561086b565b005b61016f6108f3565b60405161017c91906116e9565b60405180910390f35b61019f600480360381019061019a919061170b565b610aea565b6040516101ad929190611738565b60405180910390f35b6101be610b2e565b6040516101cb9190611761565b60405180910390f35b6101ee60048036038101906101e99190611338565b610b57565b6040516101fc929190611738565b60405180910390f35b61021f600480360381019061021a91906110b4565b610bab565b60405161022c9190611797565b60405180910390f35b61024f600480360381019061024a919061170b565b610d85565b60405161025c9190611797565b60405180910390f35b61027f600480360381019061027a919061170b565b610da5565b005b6005602052816000526040600020818154811061029d57600080fd5b9060005260206000209060060201600091509150508060000154908060010154908060020154908060030180546102d3906117e1565b80601f01602080910402602001604051908101604052809291908181526020018280546102ff906117e1565b801561034c5780601f106103215761010080835404028352916020019161034c565b820191906000526020600020905b81548152906001019060200180831161032f57829003601f168201915b505050505090806004018054610361906117e1565b80601f016020809104026020016040519081016040528092919081815260200182805461038d906117e1565b80156103da5780601f106103af576101008083540402835291602001916103da565b820191906000526020600020905b8154815290600101906020018083116103bd57829003601f168201915b5050505050908060050160009054906101000a900473ffffffffffffffffffffffffffffffffffffffff16905086565b60606004805480602002602001604051908101604052809291908181526020016000905b828210156104c057838290600052602060002090600202016040518060400160405290816000820160009054906101000a900473ffffffffffffffffffffffffffffffffffffffff1673ffffffffffffffffffffffffffffffffffffffff1673ffffffffffffffffffffffffffffffffffffffff1681526020016001820154815250508152602001906001019061042e565b50505050905090565b600681815481106104d957600080fd5b906000526020600020906006020160009150905080600001549080600101549080600201549080600301805461050e906117e1565b80601f016020809104026020016040519081016040528092919081815260200182805461053a906117e1565b80156105875780601f1061055c57610100808354040283529160200191610587565b820191906000526020600020905b81548152906001019060200180831161056a57829003601f168201915b50505050509080600401805461059c906117e1565b80601f01602080910402602001604051908101604052809291908181526020018280546105c8906117e1565b80156106155780601f106105ea57610100808354040283529160200191610615565b820191906000526020600020905b8154815290600101906020018083116105f857829003601f168201915b5050505050908060050160009054906101000a900473ffffffffffffffffffffffffffffffffffffffff16905086565b60006040518060c001604052808781526020018681526020018581526020018481526020018381526020013373ffffffffffffffffffffffffffffffffffffffff168152509050600681908060018154018082558091505060019003906000526020600020906006020160009091909190915060008201518160000155602082015181600101556040820151816002015560608201518160030190805190602001906106f2929190610f69565b50608082015181600401908051906020019061070f929190610f69565b5060a08201518160050160006101000a81548173ffffffffffffffffffffffffffffffffffffffff021916908373ffffffffffffffffffffffffffffffffffffffff1602179055505050600560003373ffffffffffffffffffffffffffffffffffffffff1673ffffffffffffffffffffffffffffffffffffffff16815260200190815260200160002081908060018154018082558091505060019003906000526020600020906006020160009091909190915060008201518160000155602082015181600101556040820151816002015560608201518160030190805190602001906107fc929190610f69565b506080820151816004019080519060200190610819929190610f69565b5060a08201518160050160006101000a81548173ffffffffffffffffffffffffffffffffffffffff021916908373ffffffffffffffffffffffffffffffffffffffff1602179055505050505050505050565b610873610e9d565b73ffffffffffffffffffffffffffffffffffffffff16610891610b2e565b73ffffffffffffffffffffffffffffffffffffffff16146108e7576040517f08c379a00000000000000000000000000000000000000000000000000000000081526004016108de9061185f565b60405180910390fd5b6108f16000610ea5565b565b60606006805480602002602001604051908101604052809291908181526020016000905b82821015610ae157838290600052602060002090600602016040518060c0016040529081600082015481526020016001820154815260200160028201548152602001600382018054610968906117e1565b80601f0160208091040260200160405190810160405280929190818152602001828054610994906117e1565b80156109e15780601f106109b6576101008083540402835291602001916109e1565b820191906000526020600020905b8154815290600101906020018083116109c457829003601f168201915b505050505081526020016004820180546109fa906117e1565b80601f0160208091040260200160405190810160405280929190818152602001828054610a26906117e1565b8015610a735780601f10610a4857610100808354040283529160200191610a73565b820191906000526020600020905b815481529060010190602001808311610a5657829003601f168201915b505050505081526020016005820160009054906101000a900473ffffffffffffffffffffffffffffffffffffffff1673ffffffffffffffffffffffffffffffffffffffff1673ffffffffffffffffffffffffffffffffffffffff168152505081526020019060010190610917565b50505050905090565b60036020528060005260406000206000915090508060000160009054906101000a900473ffffffffffffffffffffffffffffffffffffffff16908060010154905082565b60008060009054906101000a900473ffffffffffffffffffffffffffffffffffffffff16905090565b60048181548110610b6757600080fd5b90600052602060002090600202016000915090508060000160009054906101000a900473ffffffffffffffffffffffffffffffffffffffff16908060010154905082565b6000610bb5610e9d565b73ffffffffffffffffffffffffffffffffffffffff16610bd3610b2e565b73ffffffffffffffffffffffffffffffffffffffff1614610c29576040517f08c379a0000000000000000000000000000000000000000000000000000000008152600401610c209061185f565b60405180910390fd5b600060405180604001604052808573ffffffffffffffffffffffffffffffffffffffff168152602001848152509050600481908060018154018082558091505060019003906000526020600020906002020160009091909190915060008201518160000160006101000a81548173ffffffffffffffffffffffffffffffffffffffff021916908373ffffffffffffffffffffffffffffffffffffffff1602179055506020820151816001015550506001600260008673ffffffffffffffffffffffffffffffffffffffff1673ffffffffffffffffffffffffffffffffffffffff16815260200190815260200160002060006101000a81548160ff021916908315150217905550600260008573ffffffffffffffffffffffffffffffffffffffff1673ffffffffffffffffffffffffffffffffffffffff16815260200190815260200160002060009054906101000a900460ff1691505092915050565b60026020528060005260406000206000915054906101000a900460ff1681565b610dad610e9d565b73ffffffffffffffffffffffffffffffffffffffff16610dcb610b2e565b73ffffffffffffffffffffffffffffffffffffffff1614610e21576040517f08c379a0000000000000000000000000000000000000000000000000000000008152600401610e189061185f565b60405180910390fd5b600073ffffffffffffffffffffffffffffffffffffffff168173ffffffffffffffffffffffffffffffffffffffff161415610e91576040517f08c379a0000000000000000000000000000000000000000000000000000000008152600401610e88906118f1565b60405180910390fd5b610e9a81610ea5565b50565b600033905090565b60008060009054906101000a900473ffffffffffffffffffffffffffffffffffffffff169050816000806101000a81548173ffffffffffffffffffffffffffffffffffffffff021916908373ffffffffffffffffffffffffffffffffffffffff1602179055508173ffffffffffffffffffffffffffffffffffffffff168173ffffffffffffffffffffffffffffffffffffffff167f8be0079c531659141344cd1fd0a4f28419497f9722a3daafe3b4186f6b6457e060405160405180910390a35050565b828054610f75906117e1565b90600052602060002090601f016020900481019282610f975760008555610fde565b82601f10610fb057805160ff1916838001178555610fde565b82800160010185558215610fde579182015b82811115610fdd578251825591602001919060010190610fc2565b5b509050610feb9190610fef565b5090565b5b80821115611008576000816000905550600101610ff0565b5090565b6000604051905090565b600080fd5b600080fd5b600073ffffffffffffffffffffffffffffffffffffffff82169050919050565b600061104b82611020565b9050919050565b61105b81611040565b811461106657600080fd5b50565b60008135905061107881611052565b92915050565b6000819050919050565b6110918161107e565b811461109c57600080fd5b50565b6000813590506110ae81611088565b92915050565b600080604083850312156110cb576110ca611016565b5b60006110d985828601611069565b92505060206110ea8582860161109f565b9150509250929050565b6110fd8161107e565b82525050565b600081519050919050565b600082825260208201905092915050565b60005b8381101561113d578082015181840152602081019050611122565b8381111561114c576000848401525b50505050565b6000601f19601f8301169050919050565b600061116e82611103565b611178818561110e565b935061118881856020860161111f565b61119181611152565b840191505092915050565b6111a581611040565b82525050565b600060c0820190506111c060008301896110f4565b6111cd60208301886110f4565b6111da60408301876110f4565b81810360608301526111ec8186611163565b905081810360808301526112008185611163565b905061120f60a083018461119c565b979650505050505050565b600081519050919050565b600082825260208201905092915050565b6000819050602082019050919050565b61124f81611040565b82525050565b61125e8161107e565b82525050565b60408201600082015161127a6000850182611246565b50602082015161128d6020850182611255565b50505050565b600061129f8383611264565b60408301905092915050565b6000602082019050919050565b60006112c38261121a565b6112cd8185611225565b93506112d883611236565b8060005b838110156113095781516112f08882611293565b97506112fb836112ab565b9250506001810190506112dc565b5085935050505092915050565b6000602082019050818103600083015261133081846112b8565b905092915050565b60006020828403121561134e5761134d611016565b5b600061135c8482850161109f565b91505092915050565b600080fd5b600080fd5b7f4e487b7100000000000000000000000000000000000000000000000000000000600052604160045260246000fd5b6113a782611152565b810181811067ffffffffffffffff821117156113c6576113c561136f565b5b80604052505050565b60006113d961100c565b90506113e5828261139e565b919050565b600067ffffffffffffffff8211156114055761140461136f565b5b61140e82611152565b9050602081019050919050565b82818337600083830152505050565b600061143d611438846113ea565b6113cf565b9050828152602081018484840111156114595761145861136a565b5b61146484828561141b565b509392505050565b600082601f83011261148157611480611365565b5b813561149184826020860161142a565b91505092915050565b600080600080600060a086880312156114b6576114b5611016565b5b60006114c48882890161109f565b95505060206114d58882890161109f565b94505060406114e68882890161109f565b935050606086013567ffffffffffffffff8111156115075761150661101b565b5b6115138882890161146c565b925050608086013567ffffffffffffffff8111156115345761153361101b565b5b6115408882890161146c565b9150509295509295909350565b600081519050919050565b600082825260208201905092915050565b6000819050602082019050919050565b600082825260208201905092915050565b600061159582611103565b61159f8185611579565b93506115af81856020860161111f565b6115b881611152565b840191505092915050565b600060c0830160008301516115db6000860182611255565b5060208301516115ee6020860182611255565b5060408301516116016040860182611255565b5060608301518482036060860152611619828261158a565b91505060808301518482036080860152611633828261158a565b91505060a083015161164860a0860182611246565b508091505092915050565b600061165f83836115c3565b905092915050565b6000602082019050919050565b600061167f8261154d565b6116898185611558565b93508360208202850161169b85611569565b8060005b858110156116d757848403895281516116b88582611653565b94506116c383611667565b925060208a0199505060018101905061169f565b50829750879550505050505092915050565b600060208201905081810360008301526117038184611674565b905092915050565b60006020828403121561172157611720611016565b5b600061172f84828501611069565b91505092915050565b600060408201905061174d600083018561119c565b61175a60208301846110f4565b9392505050565b6000602082019050611776600083018461119c565b92915050565b60008115159050919050565b6117918161177c565b82525050565b60006020820190506117ac6000830184611788565b92915050565b7f4e487b7100000000000000000000000000000000000000000000000000000000600052602260045260246000fd5b600060028204905060018216806117f957607f821691505b6020821081141561180d5761180c6117b2565b5b50919050565b7f4f776e61626c653a2063616c6c6572206973206e6f7420746865206f776e6572600082015250565b600061184960208361110e565b915061185482611813565b602082019050919050565b600060208201905081810360008301526118788161183c565b9050919050565b7f4f776e61626c653a206e6577206f776e657220697320746865207a65726f206160008201527f6464726573730000000000000000000000000000000000000000000000000000602082015250565b60006118db60268361110e565b91506118e68261187f565b604082019050919050565b6000602082019050818103600083015261190a816118ce565b905091905056fea2646970667358221220eea5c445c817abaa78e5955b0c18970cfe96b9c611eec711757e4e8011f5139164736f6c63430008090033",
  "immutableReferences": {},
  "source": "// SPDX-License-Identifier: MIT\npragma solidity 0.8.9;\n\nimport \"@openzeppelin/contracts/access/Ownable.sol\";\n// import \"@openzeppelin/contracts/token/ERC20/ERC20.sol\";\n\ncontract SeedHub is Ownable {\n\n  // event lets front end see new user and their balance\n  // event NewUserAdded(address NewUser, uint userTokenBalance);\n  \n  // uint public userLotId; % 1000000\n  \n  // differentiates owner's (deployer) address from message sender(user)\n  // address owner = _owner;\n  // differentiates user from owner\n  address user;\n  // mapping so our functions verify if user exists otherwise we send them to contract owner\n  mapping(address => bool) public verifiedUsers;\n  // mapping lets functions access user to their token balance/seedLots\n  mapping(address => UserInfo) public userBase;\n  //array to store ALL users' structs. There must be an efficient method. This isn't it.. \n  UserInfo[] public usersInfo;\n  //mapping user to seedLots they have. Again, we can tighten all of this by reorganising struct members\n  mapping(address => SeedLot[]) public userSeedLots;\n  //array of all seedLot structs. \n  SeedLot[] public seedLots;\n  // we need an data structure to store i)varieties ii)seedClasses\n  //(nested array?? but this is so potentially storage consuming and gas intensive \n  // to push/shift to keep storage at a minimum)\n  \n  // struct with all info about a deposit\n  // Still want a token balance of the user\n  // I need an explainer on 'owner'\n  struct SeedLot {\n    uint shelfLife;\n    uint lotGrams;\n    uint expiryDate;\n    string seedClass;\n    string variety;\n    address owner;\n  }\n\n  // struct keeps track of user activity (need a data structure e.g. array) which we \n  // still need to add, although we could do address/balance in a mapping\n  // We're going to KYC the user\n  struct UserInfo {\n      address user;\n      uint tokenBalance;\n  }\n  \n  // @notice function to let user deposit seeds and get paid tokens\n  // @params lotGram(weight of user deposit), seedClass, variety (of said seedClass)\n  // @params newTokenBalance (updated user token balance) \n  // @dev add 3 param values to SeedLot and push to seedLots array\n  // // @dev map caller address\n  // function userDeposit(uint _lotGram, string memory _seedClass, string memory _variety)\n  //   public verifiedUser returns (uint _newTokenBalance) \n  //    getter function fetchSeedLots is already called below\n  //    SeedLot _pointer = etc etc\n  //    SeedBank Balance allowances:\n  //    allowed userSeedDeposit = maxStockLimit - balanceGrams / 10 \n  //    e.g. (25000 - 14000) / 10 = 1100 \n  //    need to add three values to a struct of 6 values from msg.sender\n  //    _pointer._lotGram\n  //    _pointer._seedclass etc etc\n  //    reentrancy: do following in correct order\n  //    work out user's payment and transfer msg.value to their account\n  //    update their struct with new tokenBalance;  \n    \n\n\n  \n  // modifier checks if user is in verifiedUsers mapping to \n  // restrict user access to only some functions \n  // modifier verifiedUser(address _user) {\n  //   require(verifiedUsers[msg.sender] == true, \"Caught, mister. We pinpoint potential trouble-makers...And neutralize them!\");\n  //   _;\n  // }\n\n     // @notice internal function called by onlyOwner to add new user \n  // @params add new user and newly allocated tokens to userInfo struct\n  // and usersBase array, accessible through userBase mapping (careful of spellings)\n  // returns bool for verifiedUser mapping to be used with verifiedUser modifier\n  function addUser(address _user, uint _tokenBalance) public onlyOwner returns(bool) { \n      UserInfo memory newUser = UserInfo ({\n        user: _user,\n        tokenBalance: _tokenBalance\n      });\n    \n      usersInfo.push(newUser);\n      verifiedUsers[_user] = true;\n      // emit NewUserAdded(_user, _tokenBalance);\n      return verifiedUsers[_user];\n  } \n  \n  // @notice view getter function to grab userBase for setter addUser() function above \n  // @params allows UserInfo[] struct cos it's memory, not storage\n  function fetchUserBase() external view returns (UserInfo[] memory) {\n    return usersInfo;\n  }\n    \n  // @notice so onlyOwner can add a new seedLot to seedLots array  \n  // @params shelflife(of this variety), lotGrams(deposit weight), expiryDate(of this lot)\n  // @params seedClass (e.g. tomato), variety(e.g. 'Roma'), owner(contract deployer)\n  // @dev I thought I need to define onlyOwner modifier from inherited 'Ownable.sol' contract,\n  // @dev but if I use it says caller is not owner and Ownable.OwnershipTransferred() was called\n  // @dev puses new seedLot struct to seedLots array\n  // @dev maps 'caller' address to this seedLot in userSeedLots mapping\n  // see code way futher down for setting expiry date\n  \n  // SHOULD BE ONLY OWNDER FUNCTION!!!!!!!\n  \n  function addSeed(\n    uint _shelfLife,\n    uint _lotGrams,\n    uint _expiryDate,\n    string memory _seedClass,\n    string memory _variety\n  ) external {\n\n    SeedLot memory seedLot = SeedLot({\n      shelfLife: _shelfLife,\n      lotGrams: _lotGrams,\n      expiryDate: _expiryDate,\n      seedClass: _seedClass,\n      variety: _variety,\n      owner: msg.sender\n    });\n    \n    seedLots.push(seedLot);\n    userSeedLots[msg.sender].push(seedLot);\n  }\n\n  // @notice getter function to grab a SeedLot[] struct so we can put it in seedLots array\n  // @dev returns seedLots array to use in addSeed function above\n  function fetchSeedLots() external view returns (SeedLot[] memory) {\n    return seedLots;\n}\n}\n\n// @notice altenative to above fetchSeedLots getter. \n// @notice Apparantly the following view getter function lets us  \n// @dev build and loop over an array in memory which is intensive but gas cheap\n// @dev and doesn't involve  unneeded storage to blockchain. It needs work\n// function fetchSeedLots(address _owner) external view returns (SeedLot[] memory) {\n//   SeedLot[] memory result = new SeedLot[](userSeedLots[_owner]);\n//   uint counter = 0;\n//   for (uint i = 0; i < seedLots.length; i++) {\n//     if (userSeedLots[i] == _owner) {\n//       result[counter] = i; \n//       counter++;\n//     }\n//   }\n//   return result;\n// }\n\n// @notice to make sure user deposit weight is within the allowed parameters\n// @params lotGram(user's weight deposit)\n// @dev checks lotGram against the below stockLimit algorithm\n//     modifier noGLut(lotGrams) owner {\n//         require(lotGrams =< ((maxStockLimit - balanceGrams) / 10);\n//         _;\n//     } \n\n// @notice make sure user doesn't withdraw more than is allowed\n// @params lotGram(user's weight withdrawl)\n// @dev checks lotGram againnst below stockLimit algorithm      \n// modifier noPlunder(lotGrams) owner {\n//         require(lotGrams =< ((minStockLimit - balanceGrams) / 10);\n//         _;\n//     } \n\n// @notice modifier for user deposit function\n// @dev puts a timelock restriction on user deposit frequency\n//   modifier dontTakeThePiss() {\n//         require(user hasnt deposited =< six months);\n//         _;\n//   } \n\n// Don't I need this constructor function???\n// Or does this run automatically in the other contract?\n// constructor() public Ownable() {} \n \n// pragma solidity >=0.4.22 <0.9.0;\n\n// import \"@openzeppelin/contracts/token/ERC20/ERC20.sol\";\n// import \"@openzeppelin/contracts/access/Ownable.sol\";\n\n// contract MyToken is ERC20, Ownable {\n// constructor() ERC20(\"MyToken\", \"MTK\") {}\n\n// function mint(address to, uint256 amount) public onlyOwner {\n//         _mint(to, amount);\n// }\n// }\n\n// contract SeedHub is Ownable{\n\n// contract SeedHub {\n/// event\n\n// WHAT IS IN STORAGE PAUL?????\n\n// uint16 public lotId; // should produce a short memorable number hashed mapped to user address\n// address internal owner;    \n// address public user;\n// string public seedClass;\n\n// mapping(uint => bool) internal newVarieties; // confirm variety is added, though maybe can loop and check with \"\" => bool in an array???\n// mapping(address => bool) internal userBase; // precondition:  validated suppliers mapping/user must be verified. We can check through this\n// mapping(address => uint16) private lots; // to track user activity. This doesn't wotk, I think\n// mapping (address => uint) public accountBalance; // to track all users' balances\n// mapping(string => Seed) public seedClass; // a. to first track seedClass e.g. tomato\n// b. to secondly track variety of that class e.g. 'Roma' (tomato)\n// As with the mapping, surely we need to store and retrieve these data sets together class=>variety\n// mapping(string => (string => Seed)) classVarieties;  need to can do this in one fail swoop\n// string public variety;\n// mapping(string => Seed) varieties;\n// so below is an array should let us store variety in a class set. I know this is wrong but it's a start\n// Seed[] public VarietySets;\n// SeedClass[] public VarietySets; above array should be this\n// SeedBank[] public ClassSets;\n\n// SeedClass[Variety[]] public seedClasses; // need to tame these and not have them flying all over the show\n// enum State { Deposited, Stored, Intransit, Approved, Withdrawn}\n// / State state type would eventually be added to LotId struct\n\n// / can I use bytes for a lot of these values e.g. lotId\n// / and also string names converted to bytes for storage\n// / by hashing them?\n// struct Seed {\n//     uint16 shelflife;\n//     uint16 gramToTokenValue;\n//     uint8 balanceToken;\n//     uint24 balanceGrams;\n//     string seedClass;\n//     string variety;  \n//     uint24 maxStockLimit;\n//     uint24 minStockLimit;      \n// }\n\n\n// / what about string to bytes?\n// / data to be added in front end \n// / LOT ID NEEDS TO BE HASHED BUT WHITTLED DOWN to 6 DIGITS or so\n//  abi.encodePacked(...) returns (bytes memory): Performs packed encoding of the given\n//  arguments. n.b. this encoding can be ambiguous!\n// / see CryptoZombies dnaModulus stuff % ** 16 etc.....\n//  struct LotId {\n//     uint16 lotGrams;\n//     uint16 expiryDate;   //NOW GET LOT ID!!! :)\n//     string seedClass;\n//     string variety;\n//     address _address;\n// }\n\n// we need a way to map to user's lots/activity\n// we can't have an endless database of userLots on chain!!!\n\n// event NewVariety(string indexed message);\n\n\n// modifier userKYCed(user) {\n//     require(userBase.address == true, \"Please apply for KYC through admin\");\n//     _;\n// } \n\n//  the addNewSeed function is called by contract owner(s i.e. evt multisig) only\n//  so do we probably do not need an address as a param\n// function setNewSeed(\n//     uint16 _shelflife,\n//     uint16 _gramToTokenValue,\n//     uint8 _balanceToken,\n//     string memory class,\n//     string memory _variety,\n//     uint24 weight,\n//     uint24 _maxStockLimit,\n//     uint24 _minStockLimit \n// ) \n//     public\n//     // internal \n//     returns (bool) \n// {\n    // data locattion must be storage, calldata or memory, otherwise it yells\n//     Seed storage newVariety = varieties[_variety];\n            \n//         newVariety.shelflife = _shelflife;\n//         newVariety.gramToTokenValue = _gramToTokenValue;\n//         newVariety.balanceToken = _balanceToken;\n//         newVariety.balanceGrams = weight;\n//         newVariety.seedClass = class;\n//         newVariety.variety = _variety;\n//         newVariety.maxStockLimit = _maxStockLimit;\n//         newVariety.minStockLimit = _minStockLimit;\n        \n//         VarietySets.push(newVariety);\n//       emit NewVariety(\"new variety added\");\n//       return true;\n\n//     }\n//  not sure what the following function is for anymore\n// function getVarietySets() public view returns(Seed[] memory) {\n//     return VarietySets;\n\n// }\n\n// function tokenToSeedValue(balanceGrams, maxStockLimit, minStockLimit, balanceToken ) owner/private pure/view {\n//        Uniswap V1 algo x * y = k Uniswap      \n// } \n\n// function deposit() noGLut(lotGrams){\n//   \tdeposit seed to a seedVariety balance\n\n// }\n// function getSeed()\n\n\n// function withdraw() noPlunder(lotGrams){\n//    withdraw seed from seedVariety balance\n\n// }\n\n// }\n// function tokenCalculation() private view/pure {\n//    calculate value of token payment based on deposit to\n//      Seed.balanceGrams ratio\n\n// }\n\n// function addNewUser() {\n// }\n\n//     function registerDepositTime() public {\n//         registered = now;\n// }\n// function setShelflife() public returns (uint _numWeeks) {\n//         require (newVariety.shelflife > (now + registerDep, \"Shelflife surpassed. Please remove lotId from SeedBank\")\n//         emit RemoveDeprecatedSeeds()\n//         return (now >= registerDep + _numWeeks)\n\n// }\n// uint lastUpdated;\n\n// Set `lastUpdated` to `now`\n// function updateTimestamp() public {\n// lastUpdated = now;\n// }\n\n// Will return `true` if 5 minutes have passed since `updateTimestamp` was \n// called, `false` if 5 minutes have not passed\n// function fiveMinutesHavePassed() public view returns (bool) {\n// return (now >= (lastUpdated + 5 minutes));\n// }\n\n// }\n",
  "sourcePath": "/home/paul/dev/SeedHub/contracts/SeedHub.sol",
  "compiler": {
    "name": "solc",
    "version": "0.8.9+commit.e5eed63a.Emscripten.clang"
  },
  "schemaVersion": "3.4.3",
  "updatedAt": "2021-12-06T01:22:58.329Z",
  "devdoc": {
    "kind": "dev",
    "methods": {
      "owner()": {
        "details": "Returns the address of the current owner."
      },
      "renounceOwnership()": {
        "details": "Leaves the contract without owner. It will not be possible to call `onlyOwner` functions anymore. Can only be called by the current owner. NOTE: Renouncing ownership will leave the contract without an owner, thereby removing any functionality that is only available to the owner."
      },
      "transferOwnership(address)": {
        "details": "Transfers ownership of the contract to a new account (`newOwner`). Can only be called by the current owner."
      }
    },
    "version": 1
  },
  "userdoc": {
    "kind": "user",
    "methods": {},
    "version": 1
  }
}