{
  "contractName": "SeedHub",
  "abi": [
    {
      "anonymous": false,
      "inputs": [
        {
          "indexed": true,
          "internalType": "address",
          "name": "previousOwner",
          "type": "address"
        },
        {
          "indexed": true,
          "internalType": "address",
          "name": "newOwner",
          "type": "address"
        }
      ],
      "name": "OwnershipTransferred",
      "type": "event"
    },
    {
      "inputs": [],
      "name": "owner",
      "outputs": [
        {
          "internalType": "address",
          "name": "",
          "type": "address"
        }
      ],
      "stateMutability": "view",
      "type": "function"
    },
    {
      "inputs": [],
      "name": "renounceOwnership",
      "outputs": [],
      "stateMutability": "nonpayable",
      "type": "function"
    },
    {
      "inputs": [
        {
          "internalType": "uint256",
          "name": "",
          "type": "uint256"
        }
      ],
      "name": "seedLots",
      "outputs": [
        {
          "internalType": "uint256",
          "name": "shelfLife",
          "type": "uint256"
        },
        {
          "internalType": "uint256",
          "name": "lotGrams",
          "type": "uint256"
        },
        {
          "internalType": "uint256",
          "name": "expiryDate",
          "type": "uint256"
        },
        {
          "internalType": "string",
          "name": "seedClass",
          "type": "string"
        },
        {
          "internalType": "string",
          "name": "variety",
          "type": "string"
        },
        {
          "internalType": "address",
          "name": "owner",
          "type": "address"
        }
      ],
      "stateMutability": "view",
      "type": "function"
    },
    {
      "inputs": [
        {
          "internalType": "address",
          "name": "newOwner",
          "type": "address"
        }
      ],
      "name": "transferOwnership",
      "outputs": [],
      "stateMutability": "nonpayable",
      "type": "function"
    },
    {
      "inputs": [
        {
          "internalType": "address",
          "name": "",
          "type": "address"
        },
        {
          "internalType": "uint256",
          "name": "",
          "type": "uint256"
        }
      ],
      "name": "userSeedLots",
      "outputs": [
        {
          "internalType": "uint256",
          "name": "shelfLife",
          "type": "uint256"
        },
        {
          "internalType": "uint256",
          "name": "lotGrams",
          "type": "uint256"
        },
        {
          "internalType": "uint256",
          "name": "expiryDate",
          "type": "uint256"
        },
        {
          "internalType": "string",
          "name": "seedClass",
          "type": "string"
        },
        {
          "internalType": "string",
          "name": "variety",
          "type": "string"
        },
        {
          "internalType": "address",
          "name": "owner",
          "type": "address"
        }
      ],
      "stateMutability": "view",
      "type": "function"
    },
    {
      "inputs": [
        {
          "internalType": "uint256",
          "name": "_shelfLife",
          "type": "uint256"
        },
        {
          "internalType": "uint256",
          "name": "_lotGrams",
          "type": "uint256"
        },
        {
          "internalType": "uint256",
          "name": "_expiryDate",
          "type": "uint256"
        },
        {
          "internalType": "string",
          "name": "_seedClass",
          "type": "string"
        },
        {
          "internalType": "string",
          "name": "_variety",
          "type": "string"
        }
      ],
      "name": "addSeed",
      "outputs": [],
      "stateMutability": "nonpayable",
      "type": "function"
    },
    {
      "inputs": [],
      "name": "fetchSeedLots",
      "outputs": [
        {
          "components": [
            {
              "internalType": "uint256",
              "name": "shelfLife",
              "type": "uint256"
            },
            {
              "internalType": "uint256",
              "name": "lotGrams",
              "type": "uint256"
            },
            {
              "internalType": "uint256",
              "name": "expiryDate",
              "type": "uint256"
            },
            {
              "internalType": "string",
              "name": "seedClass",
              "type": "string"
            },
            {
              "internalType": "string",
              "name": "variety",
              "type": "string"
            },
            {
              "internalType": "address",
              "name": "owner",
              "type": "address"
            }
          ],
          "internalType": "struct SeedHub.SeedLot[]",
          "name": "",
          "type": "tuple[]"
        }
      ],
      "stateMutability": "view",
      "type": "function"
    }
  ],
  "bytecode": "0x608060405234801561001057600080fd5b5061002d61002261003260201b60201c565b61003a60201b60201c565b6100fe565b600033905090565b60008060009054906101000a900473ffffffffffffffffffffffffffffffffffffffff169050816000806101000a81548173ffffffffffffffffffffffffffffffffffffffff021916908373ffffffffffffffffffffffffffffffffffffffff1602179055508173ffffffffffffffffffffffffffffffffffffffff168173ffffffffffffffffffffffffffffffffffffffff167f8be0079c531659141344cd1fd0a4f28419497f9722a3daafe3b4186f6b6457e060405160405180910390a35050565b6113808061010d6000396000f3fe608060405234801561001057600080fd5b506004361061007d5760003560e01c8063715018a61161005b578063715018a61461010857806375846314146101125780638da5cb5b14610130578063f2fde38b1461014e5761007d565b80631b24e09a1461008257806337ef1f14146100b75780635799944b146100ec575b600080fd5b61009c60048036038101906100979190610c4c565b61016a565b6040516100ae96959493929190610d43565b60405180910390f35b6100d160048036038101906100cc9190610db2565b6102f3565b6040516100e396959493929190610d43565b60405180910390f35b61010660048036038101906101019190610f14565b61046f565b005b610110610695565b005b61011a61071d565b6040516101279190611181565b60405180910390f35b610138610914565b60405161014591906111a3565b60405180910390f35b610168600480360381019061016391906111be565b61093d565b005b6001602052816000526040600020818154811061018657600080fd5b9060005260206000209060060201600091509150508060000154908060010154908060020154908060030180546101bc9061121a565b80601f01602080910402602001604051908101604052809291908181526020018280546101e89061121a565b80156102355780601f1061020a57610100808354040283529160200191610235565b820191906000526020600020905b81548152906001019060200180831161021857829003601f168201915b50505050509080600401805461024a9061121a565b80601f01602080910402602001604051908101604052809291908181526020018280546102769061121a565b80156102c35780601f10610298576101008083540402835291602001916102c3565b820191906000526020600020905b8154815290600101906020018083116102a657829003601f168201915b5050505050908060050160009054906101000a900473ffffffffffffffffffffffffffffffffffffffff16905086565b6002818154811061030357600080fd5b90600052602060002090600602016000915090508060000154908060010154908060020154908060030180546103389061121a565b80601f01602080910402602001604051908101604052809291908181526020018280546103649061121a565b80156103b15780601f10610386576101008083540402835291602001916103b1565b820191906000526020600020905b81548152906001019060200180831161039457829003601f168201915b5050505050908060040180546103c69061121a565b80601f01602080910402602001604051908101604052809291908181526020018280546103f29061121a565b801561043f5780601f106104145761010080835404028352916020019161043f565b820191906000526020600020905b81548152906001019060200180831161042257829003601f168201915b5050505050908060050160009054906101000a900473ffffffffffffffffffffffffffffffffffffffff16905086565b60006040518060c001604052808781526020018681526020018581526020018481526020018381526020013373ffffffffffffffffffffffffffffffffffffffff1681525090506002819080600181540180825580915050600190039060005260206000209060060201600090919091909150600082015181600001556020820151816001015560408201518160020155606082015181600301908051906020019061051c929190610b01565b506080820151816004019080519060200190610539929190610b01565b5060a08201518160050160006101000a81548173ffffffffffffffffffffffffffffffffffffffff021916908373ffffffffffffffffffffffffffffffffffffffff1602179055505050600160003373ffffffffffffffffffffffffffffffffffffffff1673ffffffffffffffffffffffffffffffffffffffff1681526020019081526020016000208190806001815401808255809150506001900390600052602060002090600602016000909190919091506000820151816000015560208201518160010155604082015181600201556060820151816003019080519060200190610626929190610b01565b506080820151816004019080519060200190610643929190610b01565b5060a08201518160050160006101000a81548173ffffffffffffffffffffffffffffffffffffffff021916908373ffffffffffffffffffffffffffffffffffffffff1602179055505050505050505050565b61069d610a35565b73ffffffffffffffffffffffffffffffffffffffff166106bb610914565b73ffffffffffffffffffffffffffffffffffffffff1614610711576040517f08c379a000000000000000000000000000000000000000000000000000000000815260040161070890611298565b60405180910390fd5b61071b6000610a3d565b565b60606002805480602002602001604051908101604052809291908181526020016000905b8282101561090b57838290600052602060002090600602016040518060c00160405290816000820154815260200160018201548152602001600282015481526020016003820180546107929061121a565b80601f01602080910402602001604051908101604052809291908181526020018280546107be9061121a565b801561080b5780601f106107e05761010080835404028352916020019161080b565b820191906000526020600020905b8154815290600101906020018083116107ee57829003601f168201915b505050505081526020016004820180546108249061121a565b80601f01602080910402602001604051908101604052809291908181526020018280546108509061121a565b801561089d5780601f106108725761010080835404028352916020019161089d565b820191906000526020600020905b81548152906001019060200180831161088057829003601f168201915b505050505081526020016005820160009054906101000a900473ffffffffffffffffffffffffffffffffffffffff1673ffffffffffffffffffffffffffffffffffffffff1673ffffffffffffffffffffffffffffffffffffffff168152505081526020019060010190610741565b50505050905090565b60008060009054906101000a900473ffffffffffffffffffffffffffffffffffffffff16905090565b610945610a35565b73ffffffffffffffffffffffffffffffffffffffff16610963610914565b73ffffffffffffffffffffffffffffffffffffffff16146109b9576040517f08c379a00000000000000000000000000000000000000000000000000000000081526004016109b090611298565b60405180910390fd5b600073ffffffffffffffffffffffffffffffffffffffff168173ffffffffffffffffffffffffffffffffffffffff161415610a29576040517f08c379a0000000000000000000000000000000000000000000000000000000008152600401610a209061132a565b60405180910390fd5b610a3281610a3d565b50565b600033905090565b60008060009054906101000a900473ffffffffffffffffffffffffffffffffffffffff169050816000806101000a81548173ffffffffffffffffffffffffffffffffffffffff021916908373ffffffffffffffffffffffffffffffffffffffff1602179055508173ffffffffffffffffffffffffffffffffffffffff168173ffffffffffffffffffffffffffffffffffffffff167f8be0079c531659141344cd1fd0a4f28419497f9722a3daafe3b4186f6b6457e060405160405180910390a35050565b828054610b0d9061121a565b90600052602060002090601f016020900481019282610b2f5760008555610b76565b82601f10610b4857805160ff1916838001178555610b76565b82800160010185558215610b76579182015b82811115610b75578251825591602001919060010190610b5a565b5b509050610b839190610b87565b5090565b5b80821115610ba0576000816000905550600101610b88565b5090565b6000604051905090565b600080fd5b600080fd5b600073ffffffffffffffffffffffffffffffffffffffff82169050919050565b6000610be382610bb8565b9050919050565b610bf381610bd8565b8114610bfe57600080fd5b50565b600081359050610c1081610bea565b92915050565b6000819050919050565b610c2981610c16565b8114610c3457600080fd5b50565b600081359050610c4681610c20565b92915050565b60008060408385031215610c6357610c62610bae565b5b6000610c7185828601610c01565b9250506020610c8285828601610c37565b9150509250929050565b610c9581610c16565b82525050565b600081519050919050565b600082825260208201905092915050565b60005b83811015610cd5578082015181840152602081019050610cba565b83811115610ce4576000848401525b50505050565b6000601f19601f8301169050919050565b6000610d0682610c9b565b610d108185610ca6565b9350610d20818560208601610cb7565b610d2981610cea565b840191505092915050565b610d3d81610bd8565b82525050565b600060c082019050610d586000830189610c8c565b610d656020830188610c8c565b610d726040830187610c8c565b8181036060830152610d848186610cfb565b90508181036080830152610d988185610cfb565b9050610da760a0830184610d34565b979650505050505050565b600060208284031215610dc857610dc7610bae565b5b6000610dd684828501610c37565b91505092915050565b600080fd5b600080fd5b7f4e487b7100000000000000000000000000000000000000000000000000000000600052604160045260246000fd5b610e2182610cea565b810181811067ffffffffffffffff82111715610e4057610e3f610de9565b5b80604052505050565b6000610e53610ba4565b9050610e5f8282610e18565b919050565b600067ffffffffffffffff821115610e7f57610e7e610de9565b5b610e8882610cea565b9050602081019050919050565b82818337600083830152505050565b6000610eb7610eb284610e64565b610e49565b905082815260208101848484011115610ed357610ed2610de4565b5b610ede848285610e95565b509392505050565b600082601f830112610efb57610efa610ddf565b5b8135610f0b848260208601610ea4565b91505092915050565b600080600080600060a08688031215610f3057610f2f610bae565b5b6000610f3e88828901610c37565b9550506020610f4f88828901610c37565b9450506040610f6088828901610c37565b935050606086013567ffffffffffffffff811115610f8157610f80610bb3565b5b610f8d88828901610ee6565b925050608086013567ffffffffffffffff811115610fae57610fad610bb3565b5b610fba88828901610ee6565b9150509295509295909350565b600081519050919050565b600082825260208201905092915050565b6000819050602082019050919050565b610ffc81610c16565b82525050565b600082825260208201905092915050565b600061101e82610c9b565b6110288185611002565b9350611038818560208601610cb7565b61104181610cea565b840191505092915050565b61105581610bd8565b82525050565b600060c0830160008301516110736000860182610ff3565b5060208301516110866020860182610ff3565b5060408301516110996040860182610ff3565b50606083015184820360608601526110b18282611013565b915050608083015184820360808601526110cb8282611013565b91505060a08301516110e060a086018261104c565b508091505092915050565b60006110f7838361105b565b905092915050565b6000602082019050919050565b600061111782610fc7565b6111218185610fd2565b93508360208202850161113385610fe3565b8060005b8581101561116f578484038952815161115085826110eb565b945061115b836110ff565b925060208a01995050600181019050611137565b50829750879550505050505092915050565b6000602082019050818103600083015261119b818461110c565b905092915050565b60006020820190506111b86000830184610d34565b92915050565b6000602082840312156111d4576111d3610bae565b5b60006111e284828501610c01565b91505092915050565b7f4e487b7100000000000000000000000000000000000000000000000000000000600052602260045260246000fd5b6000600282049050600182168061123257607f821691505b60208210811415611246576112456111eb565b5b50919050565b7f4f776e61626c653a2063616c6c6572206973206e6f7420746865206f776e6572600082015250565b6000611282602083610ca6565b915061128d8261124c565b602082019050919050565b600060208201905081810360008301526112b181611275565b9050919050565b7f4f776e61626c653a206e6577206f776e657220697320746865207a65726f206160008201527f6464726573730000000000000000000000000000000000000000000000000000602082015250565b6000611314602683610ca6565b915061131f826112b8565b604082019050919050565b6000602082019050818103600083015261134381611307565b905091905056fea26469706673582212208c407a5b237c1deda6c848bef099c44d1c33f820e33f1748f0302b1752655b0a64736f6c63430008090033",
  "immutableReferences": {},
  "source": "// SPDX-License-Identifier: MIT\npragma solidity 0.8.9;\n\nimport \"@openzeppelin/contracts/access/Ownable.sol\";\n// import \"@openzeppelin/contracts/token/ERC20/ERC20.sol\";\n\ncontract SeedHub is Ownable {\n  mapping(address => SeedLot[]) public userSeedLots;\n\n  SeedLot[] public seedLots;\n\n  // Still want a token balance of the user\n\n  struct SeedLot {\n    uint shelfLife;\n    uint lotGrams;\n    uint expiryDate;\n    string seedClass;\n    string variety;\n    address owner;\n  }\n\n  // We're going to KYC the user\n  struct UserInfo {\n      address user;\n      uint tokenBalance;\n  }\n\n  function addSeed(\n    uint _shelfLife,\n    uint _lotGrams,\n    uint _expiryDate,\n    string memory _seedClass,\n    string memory _variety\n  ) external {\n\n    SeedLot memory seedLot = SeedLot({\n      shelfLife: _shelfLife,\n      lotGrams: _lotGrams,\n      expiryDate: _expiryDate,\n      seedClass: _seedClass,\n      variety: _variety,\n      owner: msg.sender\n    });\n\n    seedLots.push(seedLot);\n\n    userSeedLots[msg.sender].push(seedLot);\n  }\n  function fetchSeedLots() external view returns (SeedLot[] memory) {\n    return seedLots;\n}\n\n}\n// pragma solidity >=0.4.22 <0.9.0;\n\n// // import \"@openzeppelin/contracts/token/ERC20/ERC20.sol\";\n// import \"@openzeppelin/contracts/access/Ownable.sol\";\n\n// // contract MyToken is ERC20, Ownable {\n// //     constructor() ERC20(\"MyToken\", \"MTK\") {}\n\n// //     function mint(address to, uint256 amount) public onlyOwner {\n// //         _mint(to, amount);\n// //     }\n// // }\n\n// contract SeedHub is Ownable{\n\n//     // contract SeedHub {\n//     /// event\n\n//     // WHAT IS IN STORAGE PAUL?????\n    \n//     // uint16 public lotId; // should produce a short memorable number hashed mapped to user address\n//     // address internal owner;    \n//     // address public user;\n//     // string public seedClass;\n\n//     // mapping(uint => bool) internal newVarieties; // confirm variety is added, though maybe can check with \"\" => bool in an array???\n//     // mapping(address => bool) internal userBase; // precondition:  validated suppliers mapping/user must be verified. We can check through this\n//     mapping(address => uint16) private lots; // to track user activity. This doesn't wotk, I think\n//     mapping (address => uint) public accountBalance; // to track all users' balances\n//     // mapping(string => Seed) public seedClass; // a. to first track seedClass e.g. tomato\n//      // b. to secondly track variety of that class e.g. 'Roma' (tomato)\n//    // As with the mapping, surely we need to store and retrieve these data sets together class=>variety\n//     // mapping(string => (string => Seed)) classVarieties;  need to can do this in one fail swoop\n//     // string public variety;\n//     mapping(string => Seed) varieties;\n//    // so below is an array should let us store variety in a cliass set. I know this is wrong but it;s a start\n//     Seed[] public VarietySets;\n//     // SeedClass[] public VarietySets; above array should be this\n//     SeedBank[] public ClassSets;\n\n//     // SeedClass[Variety[]] public seedClasses; // need to tame these and not have them flying all over the show\n//     // enum State { Deposited, Stored, Intransit, Approved, Withdrawn}\n//     /// State state type would eventually be added to LotId struct\n\n//     /// can I use bytes for a lot of these values e.g. lotId\n//     /// and also string names converted to bytes for storage\n//     /// by hashing them?\n//     struct Seed {\n//         uint16 shelflife;\n//         uint16 gramToTokenValue;\n//         uint8 balanceToken;\n//         uint24 balanceGrams;\n//         string seedClass;\n//         string variety;  \n//         uint24 maxStockLimit;\n//         uint24 minStockLimit;      \n//     }\n\n    \n//     // /// what about string to bytes?\n//     // /// data to be added in front end \n//     // /// LOT ID NEEDS TO BE HASHED BUT WHITTLED DOWN to 6 DIGITS or so\n//     // abi.encodePacked(...) returns (bytes memory): Performs packed encoding of the given\n//     /// arguments. n.b. this encoding can be ambiguous!\n//     // /// see CryptoZombies dnaModulus stuff % ** 16 etc.....\n//     struct LotId {\n//         uint16 lotGrams;\n//         uint16 expiryDate;   //NOW GET LOT ID!!! :)\n//         string seedClass;\n//         string variety;\n//         address _address;\n//     }\n\n//     // we need to can map to user's lots/activity\n//     // we can't have an endless database of userLots on chain!!!\n//     struct UserInfo {\n//         address user;\n//         uint tokenBalance;\n//     }\n\n//     event NewVariety(string indexed message);\n\n//     //  modifier knowYourSupplier(address) owner {\n//         // require(user is in registered/check with Dina) \n//     //         _;\n//     //    }\n    \n//     // modifier noTakeThePiss() {\n//     //     require(user hasnt deposited =< six months);\n//     //     _;\n//     // } \n//     // modifier noGLut(lotGrams) owner {\n//     //     require(lotGrams =< ((maxStockLimit - balanceGrams) / 10);\n//     //     _;\n//     // } \n\n//     //  modifier noPlunder(lotGrams) owner {\n//     //     require(lotGrams =< ((minStockLimit - balanceGrams) / 10);\n//     //     _;\n//     // } \n\n//     // modifier userKYCed(user) {\n//     //     require(userBase.address == true, \"Please apply for KYC through admin\");\n//     //     _;\n//     // } \n \n//      /// the addNewSeed function is called by contract owner(s i.e. evt multisig) only\n//     /// so do we probably do not need an address as a param\n//     function setNewSeed(\n//         uint16 _shelflife,\n//         uint16 _gramToTokenValue,\n//         uint8 _balanceToken,\n//         string memory class,\n//         string memory _variety,\n//         uint24 weight,\n//         uint24 _maxStockLimit,\n//         uint24 _minStockLimit \n//     ) \n//         public\n//         // internal \n//         returns (bool) \n//     {\n//         // data locattion must be storage, calldata or memory, otherwise it yells\n//         Seed storage newVariety = varieties[_variety];\n                \n//             newVariety.shelflife = _shelflife;\n//             newVariety.gramToTokenValue = _gramToTokenValue;\n//             newVariety.balanceToken = _balanceToken;\n//             newVariety.balanceGrams = weight;\n//             newVariety.seedClass = class;\n//             newVariety.variety = _variety;\n//             newVariety.maxStockLimit = _maxStockLimit;\n//             newVariety.minStockLimit = _minStockLimit;\n            \n//             VarietySets.push(newVariety);\n//           emit NewVariety(\"new variety added\");\n//           return true;\n\n//         }\n//     /// not sure what the following function is for anymore\n    // function getVarietySets() public view returns(Seed[] memory) {\n    //     return VarietySets;\n    \n//     }\n    \n//     // function tokenToSeedValue(balanceGrams, maxStockLimit, minStockLimit, balanceToken ) owner/private pure/view {\n//     //        Uniswap V1 algo x * y = k Uniswap      \n//     // } \n    \n//     // function deposit() noGLut(lotGrams){\n// \t// \tdeposit seed to a seedVariety balance\n\t\n// \t// }\n//     // function getSeed()\n\n\n// \t// function withdraw() noPlunder(lotGrams){\n// \t// \t// withdraw seed from seedVariety balance\n\t\t\n// \t// }\n\n//     // function tokenTx() {\n// \t\t// calculate user token balance and pay/deduct accordingly\n\t\n// \t// }\n// \t// function tokenCalculation() private view/pure {\n// \t// \t// calculate value of token payment based on deposit to\n//     //     // Seed.balanceGrams ratio\n\t\n// \t// }\n\n//     function addNewUser() {\n\t\t\n\t\n// \t// }\n\n//         function registerDepositTime() public {\n//             registered = now;\n// }\n//     // function setShelflife() public returns (uint _numWeeks) {\n//             // require (newVariety.shelflife > (now + registerDep, \"Shelflife surpassed. Please remove lotId from SeedBank\")\n//             // emit RemoveDeprecatedSeeds()\n//             // return (now >= registerDep + _numWeeks)\n\t\n// \t// }\n\n\n// }\n\n\n\n\n",
  "sourcePath": "/home/paul/dev/SeedHub/contracts/SeedHub.sol",
  "compiler": {
    "name": "solc",
    "version": "0.8.9+commit.e5eed63a.Emscripten.clang"
  },
  "schemaVersion": "3.4.3",
  "updatedAt": "2021-11-30T02:04:40.257Z",
  "devdoc": {
    "kind": "dev",
    "methods": {
      "owner()": {
        "details": "Returns the address of the current owner."
      },
      "renounceOwnership()": {
        "details": "Leaves the contract without owner. It will not be possible to call `onlyOwner` functions anymore. Can only be called by the current owner. NOTE: Renouncing ownership will leave the contract without an owner, thereby removing any functionality that is only available to the owner."
      },
      "transferOwnership(address)": {
        "details": "Transfers ownership of the contract to a new account (`newOwner`). Can only be called by the current owner."
      }
    },
    "version": 1
  },
  "userdoc": {
    "kind": "user",
    "methods": {},
    "version": 1
  }
}