{
  "contractName": "SeedHub",
  "abi": [
    {
      "anonymous": false,
      "inputs": [
        {
          "indexed": true,
          "internalType": "string",
          "name": "message",
          "type": "string"
        }
      ],
      "name": "NewVariety",
      "type": "event"
    },
    {
      "inputs": [],
      "name": "lotId",
      "outputs": [
        {
          "internalType": "uint256",
          "name": "",
          "type": "uint256"
        }
      ],
      "stateMutability": "view",
      "type": "function"
    },
    {
      "inputs": [],
      "name": "owner",
      "outputs": [
        {
          "internalType": "address",
          "name": "",
          "type": "address"
        }
      ],
      "stateMutability": "view",
      "type": "function"
    },
    {
      "inputs": [
        {
          "internalType": "string",
          "name": "class",
          "type": "string"
        },
        {
          "internalType": "string",
          "name": "_variety",
          "type": "string"
        },
        {
          "internalType": "uint32",
          "name": "weight",
          "type": "uint32"
        }
      ],
      "name": "addNewSeed",
      "outputs": [
        {
          "internalType": "bool",
          "name": "",
          "type": "bool"
        }
      ],
      "stateMutability": "nonpayable",
      "type": "function"
    }
  ],
  "bytecode": "0x608060405234801561001057600080fd5b50610696806100206000396000f3fe608060405234801561001057600080fd5b50600436106100415760003560e01c80638da5cb5b146100465780638da8866d14610064578063adc1e20614610094575b600080fd5b61004e6100b2565b60405161005b91906102ed565b60405180910390f35b61007e6004803603810190610079919061049e565b6100d8565b60405161008b9190610544565b60405180910390f35b61009c610203565b6040516100a99190610578565b60405180910390f35b600160009054906101000a900473ffffffffffffffffffffffffffffffffffffffff1681565b60006040518060a001604052808363ffffffff1681526020018363ffffffff168152602001600054815260200185815260200184815250600260008054815260200190815260200160002060008201518160000160006101000a81548163ffffffff021916908363ffffffff16021790555060208201518160000160046101000a81548163ffffffff021916908363ffffffff160217905550604082015181600101556060820151816002019080519060200190610197929190610209565b5060808201518160030190805190602001906101b4929190610209565b509050506040516101c4906105ea565b60405180910390207f753fb9e12b391abeb7c3418fcff46585e93f34e011c4e01c68d5e7ea143dff3260405160405180910390a2600190509392505050565b60005481565b8280546102159061062e565b90600052602060002090601f016020900481019282610237576000855561027e565b82601f1061025057805160ff191683800117855561027e565b8280016001018555821561027e579182015b8281111561027d578251825591602001919060010190610262565b5b50905061028b919061028f565b5090565b5b808211156102a8576000816000905550600101610290565b5090565b600073ffffffffffffffffffffffffffffffffffffffff82169050919050565b60006102d7826102ac565b9050919050565b6102e7816102cc565b82525050565b600060208201905061030260008301846102de565b92915050565b6000604051905090565b600080fd5b600080fd5b600080fd5b600080fd5b6000601f19601f8301169050919050565b7f4e487b7100000000000000000000000000000000000000000000000000000000600052604160045260246000fd5b61036f82610326565b810181811067ffffffffffffffff8211171561038e5761038d610337565b5b80604052505050565b60006103a1610308565b90506103ad8282610366565b919050565b600067ffffffffffffffff8211156103cd576103cc610337565b5b6103d682610326565b9050602081019050919050565b82818337600083830152505050565b6000610405610400846103b2565b610397565b90508281526020810184848401111561042157610420610321565b5b61042c8482856103e3565b509392505050565b600082601f8301126104495761044861031c565b5b81356104598482602086016103f2565b91505092915050565b600063ffffffff82169050919050565b61047b81610462565b811461048657600080fd5b50565b60008135905061049881610472565b92915050565b6000806000606084860312156104b7576104b6610312565b5b600084013567ffffffffffffffff8111156104d5576104d4610317565b5b6104e186828701610434565b935050602084013567ffffffffffffffff81111561050257610501610317565b5b61050e86828701610434565b925050604061051f86828701610489565b9150509250925092565b60008115159050919050565b61053e81610529565b82525050565b60006020820190506105596000830184610535565b92915050565b6000819050919050565b6105728161055f565b82525050565b600060208201905061058d6000830184610569565b92915050565b600081905092915050565b7f6e65772076617269657479206164646564000000000000000000000000000000600082015250565b60006105d4601183610593565b91506105df8261059e565b601182019050919050565b60006105f5826105c7565b9150819050919050565b7f4e487b7100000000000000000000000000000000000000000000000000000000600052602260045260246000fd5b6000600282049050600182168061064657607f821691505b6020821081141561065a576106596105ff565b5b5091905056fea26469706673582212200a594a017f8003bbbdcc7561bf525d52e4c5315e7e98ec5258a0fb7721b6985064736f6c63430008090033",
  "immutableReferences": {},
  "source": "// SPDX-License-Identifier: MIT\npragma solidity >=0.4.22 <0.9.0;\n\ncontract SeedHub {\n\n    /// event\n\n    uint public lotId;\n    address public owner;    \n\n    mapping(uint => Seed) internal seeds;\n    mapping(uint => bool) internal newVariety;\n\n    struct Seed {\n        uint32 grams;\n        // uint32 uint16(seedBalance); can I change just in function??\n        uint32 seedBalance;\n        uint lotID;\n        string seedClass;\n        string variety;        \n    }\n\n    event NewVariety(string indexed message);\n\n    function addNewSeed(\n        string memory class,\n        string memory _variety,\n        uint32 weight\n    ) \n        public \n        returns (bool) \n    {\n        seeds[lotId] = Seed({\n            grams: weight,\n            seedBalance: weight,\n            lotID: lotId,\n            seedClass: class,\n            variety: _variety\n        });    \n            \n          emit NewVariety(\"new variety added\");\n          return true;\n\n        }\n\n}\n\n\n\n\n",
  "sourcePath": "/home/paul/dev/SeedHub/contracts/SeedHub.sol",
  "compiler": {
    "name": "solc",
    "version": "0.8.9+commit.e5eed63a.Emscripten.clang"
  },
  "schemaVersion": "3.4.3",
  "updatedAt": "2021-11-18T17:42:37.534Z",
  "devdoc": {
    "kind": "dev",
    "methods": {},
    "version": 1
  },
  "userdoc": {
    "kind": "user",
    "methods": {
      "lotId()": {
        "notice": "event"
      }
    },
    "version": 1
  }
}